:020000040000FA
:100000000A128A11FA2F00308A000408840A820733
:10001000003441345434443436343934383436348A
:100020003934353431343334303439343B340D34AD
:040030000A3400345A
:100DC400F000831203130C1EE82EE92EE32E7008A4
:100DD40099000800831603130713871781309900BD
:100DE40018151812831203139817831603139816F1
:100DF4008312031318168316031318138312031391
:100E040018130800F200162F720884000A128A11BF
:100E140003200A128A110A128A11E2260A128A117E
:100E24000130F1007108F207720884000A128A1175
:100E340003200A128A11003A031D212F222F062FA4
:100E440008000A30831603138800860183120313F3
:100E5400861506161A30FA005E30F9006E30F80076
:100E6400F80B322FF90B322FFA0B322F00008312BA
:100E74000313861106120A128A11EC260A128A1129
:100E840083120313881C472F482F652F0130F3006A
:100E94000030F4000A128A118C270A128A11831274
:100EA400031386151A30FA005E30F9006E30F8002C
:100EB400F80B5A2FF90B5A2FFA0B5A2F00008312F2
:100EC40003138611422F881D682F692F862F023045
:100ED400F3000030F4000A128A118C270A128A11D6
:100EE4008312031306161A30FA005E30F9006E30CE
:100EF400F800F80B7B2FF90B7B2FFA0B7B2F0000EC
:100F0400831203130612422F86110612422F0A126D
:100F14008A11002873037404031D912F922F992FB3
:100F240001300A128A1104270A128A11A62F0230EC
:100F340073067404031D9F2FA02FA62F01300A12DD
:100F44008A1104270A128A118312031386140630A5
:100F5400F7001330F600AD30F500F50BAF2FF60BAC
:100F6400AF2FF70BAF2FB62F831203138610063063
:100F7400F7001330F600AD30F500F50BBF2FF60B7C
:100F8400BF2FF70BBF2FC62F83120313861406300F
:100F9400F7001330F600AD30F500F50BCF2FF60B4C
:100FA400CF2FF70BCF2FD62F8312031386100630C3
:100FB400F7001330F600AD30F500F50BDF2FF60B1C
:100FC400DF2FF70BDF2FE62F83120313861406306F
:100FD400F7001330F600AD30F500F50BEF2FF60BEC
:100FE400EF2FF70BEF2FF62F831203138610080051
:0C0FF400FB01FC0183010A128A11232F6B
:02400E003A3F37
:00000001FF
