:100000000A128A11ED2FFF1B0D2883137F18831707
:100010000008840A0319FF0A080000308A00040857
:10002000840A820700345334653474347434693478
:100030006E34673473340A3453346134763465343F
:100040002034703468346F346E34653420346E3448
:1000500075346D3462346534723428343134293463
:100060002034523465346134643420347334613460
:1000700076346534643420346E3475346D346234CF
:1000800065347234283432342934003447345334DC
:100090004D342034393441344C34413452344D34AD
:1000A0000A34203453347434613472347434203458
:1000B000283431342934203453346C346534653475
:1000C0007034283432342934203453346534743451
:1000D000743469346E3467347334283433342934D7
:1000E0000034503468346F346E34653420347334E3
:1000F0006134763465346434203473347534633455
:100100006334653473347334663475346C346C34EE
:10011000793400344534723472346F34723420349C
:10012000723465346134643469346E346734203435
:100130006E3475346D346234653472340034533443
:1001400061347634653464342034703468346F3408
:100150006E34653420346E3475346D3462346534F5
:1001600072340A3400344534723472346F34723469
:10017000203473346134763469346E346734203417
:10018000703468346F346E34653400344134543420
:1001900044343634393438343634393435343134FF
:1001A0003334303439343B340D340A34003445347C
:1001B0006E34743465347234203479346F34753469
:1001C00072342034703468346F346E3465340034E3
:1001D0004E346F3420346E3475346D34623465348B
:1001E00072342034733461347634653464340034CA
:0801F0006534723472340034EE
:1005AA007008080071080800F001F10108008312C0
:1005BA0003138611061208000A30831603138800F3
:1005CA008601080083120313881EEC2AED2AE72A03
:1005DA000800F000831203130C1EF42AF52AEF2AEE
:1005EA00700899000800B4300A128A1192230A127C
:1005FA008A110A128A1148250A128A1108000A1257
:10060A008A1111230A128A110A128A115E240A1205
:10061A008A110A128A1100280A128A115F230A1201
:10062A008A110A128A11E1220A128A110A128A11FD
:10063A0049230A128A110800F2007208831203136E
:10064A008600871687171A30F100F830F000F00B91
:10065A002C2BF10B2C2B0000831203138713080099
:10066A008312031386151A30F4005E30F3006E30DD
:10067A00F200F20B3E2BF30B3E2BF40B3E2B000049
:10068A0083120313861108008312031386150616B4
:10069A001A30F2005E30F1006E30F000F00B532B8E
:1006AA00F10B532BF20B532B000083120313861109
:1006BA00061208008316031307138717813099005F
:1006CA001815181283120313981783160313981612
:1006DA0083120313181683160313181383120313B2
:1006EA0018130800F3007308F2007F2B0130FF0093
:1006FA007F08F307730884000A128A110D200A1270
:10070A008A11003A031D8A2B8B2B7B2B72087302EA
:10071A00F000F101F01BF1030800F100A42B7108AD
:10072A0084000A128A110D200A128A110A128A11E9
:10073A00EE220A128A110130FF007F08F1077108C0
:10074A0084000A128A110D200A128A11003A031D26
:10075A00AF2BB02B942B08007008F5007108F60037
:10076A000130F207FF30720784000A128A110D2045
:10077A000A128A11FF007608F4007508F300F50AD8
:10078A000319F60A730884008317741C83137F08FD
:10079A0080000008031DD22BD32BB52B0800023092
:1007AA0071067204031DDA2BDB2BED2B0A128A1158
:1007BA00D5220A128A11F300F4017308F5007408AD
:1007CA00F6000130F5070318F60A0030F607DB2BAE
:1007DA000A128A11D5220A128A11F300F401730847
:1007EA00F5007408F6007508F1007608F2000800B2
:1007FA0083120313881C022C032C122C0130F000E4
:10080A000030F1000A128A1135230A128A110A12DB
:10081A008A11F8220A128A11FD2B881D152C162C12
:10082A00252C0A128A11F8220A128A110230F000C3
:10083A000030F1000A128A1135230A128A11FD2B9F
:10084A000A128A11DC220A128A11FD2B080083126D
:10085A000313B801B9014B2C38083607840039084C
:10086A000318390A3707FF000A128A1103200A12ED
:10087A008A110A128A1121230A128A11013083125B
:10088A000313B8070318B90A0030B907380836073E
:10089A00840039080318390A3707FF000A128A1137
:1008AA0003200A128A11003A031D5C2C5D2C312C9C
:1008BA000800343083120313B6008030B7000A12DE
:1008CA008A112C240A128A110130F1000030F20038
:1008DA000A128A11D4230A128A1171037204031D9F
:1008EA00772C782C7E2C0A128A11FD230A128A117F
:1008FA00A92C0130F1000030F2000A128A11D42327
:10090A000A128A11023071067204031D8D2C8E2C74
:10091A00942C0A128A11E7220A128A11A92C013090
:10092A00F1000030F2000A128A11D4230A128A1145
:10093A00033071067204031DA32CA42CA92C0A12DD
:10094A008A119C250A128A110800F0007008840096
:10095A0083130008F100840A0008F20083120313CB
:10096A0041084204031DBA2CBB2CBF2C7030C100B5
:10097A000130C200003072020430031971020318F8
:10098A00C72CC82CCC2C0430F1000030F2007108BE
:10099A004102F3007208031C720A4202F400013099
:1009AA007402103003197302031CDC2CDD2CE72CB3
:1009BA0042087402031DE32C41087302031CE62C4F
:1009CA00E72CEE2C0C30C7000030C800F001F10112
:1009DA00F62C7308C1007408C2004108F0004208EE
:1009EA00F100080083120313B30033080A128A11B4
:1009FA0077230A128A11700883120313AF00710851
:100A0A00B0002E080A128A1177230A128A11700876
:100A1A00831203132F07B10071080318710A3007F4
:100A2A00B2003108013EA00032080318013E003E20
:100A3A00A1000A128A1151260A128A11831203137B
:100A4A002008B4002108B5003408F0003508F10088
:100A5A003308F2000A128A11B1230A128A11831288
:100A6A0003133408F0003508F1002E08F2000A12C8
:100A7A008A11B1230A128A11831203133408AE00B1
:100A8A003508AF0008008312031386140630F200FB
:100A9A001330F100AD30F000F00B512DF10B512D58
:100AAA00F20B512D582D8312031386100630F200D3
:100ABA001330F100AD30F000F00B612DF10B612D18
:100ACA00F20B612D682D8312031386140630F2008F
:100ADA001330F100AD30F000F00B712DF10B712DD8
:100AEA00F20B712D782D8312031386100630F20053
:100AFA001330F100AD30F000F00B812DF10B812D98
:100B0A00F20B812D882D8312031386140630F2000E
:100B1A001330F100AD30F000F00B912DF10B912D57
:100B2A00F20B912D982D83120313861008000130C1
:100B3A0083120313B6008030B7000A128A112C24DC
:100B4A000A128A110130F1000030F2000A128A11E9
:100B5A00D4230A128A1171037204031DB52DB62D0E
:100B6A00F72DC53083120313B6008030B7000A127E
:100B7A008A112C240A128A110230F1000030F20084
:100B8A000A128A11D4230A128A11710883120313D2
:100B9A00BA007208BB003A08F0003B08F1000A12DA
:100BAA008A11D9220A128A1170087104031DDE2DD6
:100BBA00DF2DEB2D5F3083120313B6008030B700B0
:100BCA000A128A112C240A128A11502EA130831279
:100BDA000313B6008030B7000A128A112C240A12B5
:100BEA008A11502E0A128A11D7220A128A11E63A5B
:100BFA00031D002E012E0D2E783083120313B6002A
:100C0A008030B7000A128A112C240A128A11502E37
:100C1A000A128A11D7220A128A11C43A031D162E01
:100C2A00172E232ED63083120313B6008030B70056
:100C3A000A128A112C240A128A11502E0A128A11B7
:100C4A00D7220A128A1183120313BC000130F10061
:100C5A000030F2000A128A11D4230A128A110230D1
:100C6A0071067204031D3A2E3B2E502E8312031373
:100C7A003C08AE008D300A128A11F7240A128A1132
:100C8A00831203132E08B6002F08B7000A128A111E
:100C9A002C240A128A11080083120313A801A9013D
:100CAA0020082104031D5A2E5B2E612E0130A00755
:100CBA000318A10A0030A1070030210202300319EB
:100CCA0020020318692E6A2E6F2E0230A00000300F
:100CDA00A100852E2108A3002008A200A209A309C9
:100CEA000030230202300319220203187D2E7E2EC1
:100CFA00852E0C30C7000030C800A001A1010A2FC0
:100D0A002108F1002008F0000A128A110B270A12A2
:100D1A008A1183120313AA000030AB002A082B049D
:100D2A00031D982E992E062F45084302A200460855
:100D3A00031C460A4402A30021082302031DA72E0E
:100D4A00200822020318AA2EAB2EDC2E2008023E0F
:100D5A00A40021080318013E003EA50024300A120F
:100D6A008A11AA240A128A11700883120313AC008A
:100D7A007108AD002C082D04031DC42EC52EC62EE5
:100D8A00822E44082D06031DCC2E43082C06031977
:100D9A00CF2ED02ED42E2C08C5002D08C60024082C
:100DAA002C07C30025080318250A2D07C400450887
:100DBA00AA004608AB002A08A6002B08A7002608A6
:100DCA0084008317271C831320088000840A2108C3
:100DDA0080000230A6070318A70A0030A7072608D2
:100DEA00AA002708AB002008023EA2002108031827
:100DFA00013E003EA3002208C5070318C60A2308BD
:100E0A00C6072A08A0002B08A1000800FD01F80166
:100E1A00FA01831203134908031D142F152F172FE4
:100E2A000030EC2F4908FC00802F7C0884008313D3
:100E3A000008F200840A0008F30071087306031D13
:100E4A00282F70087206031D2B2F2C2F462F7A0885
:100E5A000319302F312F3C2F7C08023E84000008F2
:100E6A00FF007A08023E84007F088000432F7C0836
:100E7A00023E8400000883120313C9007C08023E64
:100E8A00EC2F7C0884000008F200840A0008F300B2
:100E9A0073087102031D532F720870020318562F2C
:100EAA00572F792F7D0803195B2F5C2F752F7D082B
:100EBA0084000008F200840A0008F3007C08840019
:100ECA000008F400840A0008F50073087502031D7F
:100EDA00702F72087402031C732F742F752F792FC9
:100EEA007C08FD007A08F8007C08FA007C08023EBB
:100EFA0084000008FC007C08031D842F852F1A2F0C
:100F0A007D080319892F8A2F152F7D08023E840038
:100F1A0083130008FB007D0884000008F200840A9D
:100F2A000008F30070087202F4007108031C710AC9
:100F3A007302F50000307502053003197402031CB0
:100F4A00A72FA82FDA2F7D0884000008F200840A50
:100F5A000008F30070087202F4007108031C710A99
:100F6A007302F5007408FE3EF60075080318013E88
:100F7A00FF3EF7007D08840070088000840A71082B
:100F8A0080007D08840000087D07023EF900790888
:100F9A00840076088000840A770880007908023E77
:100FAA0084007B0880007908FB0083120313490838
:100FBA007D06031DE12FE22FE52F7B08C900EA2FEA
:100FCA007808023E84007B0880007D08023E080003
:100FDA0083120313BD01BE01BF01C001C101C201D9
:100FEA00C301C401C501C601C701C801C901830102
:060FFA000A128A11042B0B
:08400000FF3FFF3FFF3FFF3FC0
:02400E003A3F37
:00000001FF
