:100000000A128A11E12FFF1B0D2883137F18831713
:100010000008840A0319FF0A080000308A00040857
:10002000840A820700345334653474347434693478
:100030006E34673473340A3453346134763465343F
:100040002034703468346F346E34653420346E3448
:1000500075346D3462346534723428343134293463
:100060002034523465346134643420347334613460
:1000700076346534643420346E3475346D346234CF
:1000800065347234283432342934003447345334DC
:100090004D34203441344C34413452344D340A34DC
:1000A000203453347434613472347434203428343A
:1000B00031342934203453346C346534653470342D
:1000C000283432342934203453346534743474344D
:1000D00069346E346734733428343334293400344B
:1000E000503468346F346E34653420347334613482
:1000F0007634653464342034733475346334633453
:10010000653473347334663475346C346C347934D8
:1001100000344534723472346F34723420347234A3
:1001200065346134643469346E34673420346E3439
:1001300075346D3462346534723400345334613450
:100140007634653464342034703468346F346E34FB
:10015000653420346E3475346D34623465347234F1
:100160000A3400344534723472346F3472342034BB
:1001700073346134763469346E34673420347034C7
:1001800068346F346E34653400344134543444344C
:100190003634393438343634393435343134333410
:1001A000303439343B340D340A34003445346E3441
:1001B000743465347234203479346F347534723465
:1001C0002034703468346F346E34653400344E3407
:1001D0006F3420346E3475346D3462346534723467
:1001E00020347334613476346534643400346534D7
:0601F00072347234003489
:1004780071080800F001F1010800831203138611C6
:10048800061208000A308316031388008601080044
:1004980083120313881E512A522A4C2A0800F0009E
:1004A800831203130C1E592A5A2A542A70089900D9
:1004B8000800B3300A128A1127230A128A110A1275
:1004C8008A11DD240A128A1108000A128A113125BC
:1004D8000A128A11F70077080319732A742A692AFD
:1004E800770808000A128A1183220A128A110A124E
:1004F8008A11F3230A128A110A128A1100280A1291
:100508008A11F4220A128A110A128A1146220A1240
:100518008A110A128A11DE220A128A11080031345D
:1005280000340034003434340034003400343734B8
:100538000034003400342A340034003400347E0897
:100548008A007F0882000A128A11A3220A128A11DD
:100558008000840A04087D0603190034FF0A031981
:10056800FE0AA72AF2007208831203138600871670
:1005780087171A30F100F830F000F00BC12AF10BA0
:10058800C12A000083120313871308008312031380
:1005980086151A30F4005E30F3006E30F200F20B6C
:1005A800D32AF30BD32AF40BD32A000083120313A4
:1005B8008611080083120313861506161A30F200F6
:1005C8005E30F1006E30F000F00BE82AF10BE82AFB
:1005D800F20BE82A000083120313861106120800A2
:1005E80083160313071387178130990018151812FB
:1005F8008312031398178316031398168312031391
:1006080018168316031318138312031318130800FC
:10061800F3007308F200142B0130FF007F08F30782
:10062800730884000A128A110D200A128A11003AEE
:10063800031D1F2B202B102B72087302F000F101F1
:10064800F01BF1030800F100392B710884000A122D
:100658008A110D200A128A110A128A1153220A12CB
:100668008A110130FF007F08F107710884000A121F
:100678008A110D200A128A11003A031D442B452BBA
:10068800292B08007008F5007108F6000130F20700
:10069800FF30720784000A128A110D200A128A118B
:1006A800FF007608F4007508F300F50A0319F60A46
:1006B800730884008317741C83137F088000000864
:1006C800031D672B682B4A2B080002307806790433
:1006D800031D6F2B702B822B0A128A1169220A12B2
:1006E8008A11FA00FB017A08FC007B08FD00013042
:1006F800FC070318FD0A0030FD07702B0A128A1147
:1007080069220A128A11FA00FB017A08FC007B08A8
:10071800FD007C08F8007D08F90008008312031327
:10072800881C972B982BA72B0130F0000030F10084
:100738000A128A11CA220A128A110A128A115D2221
:100748000A128A11922B881DAA2BAB2BBA2B0A12DC
:100758008A115D220A128A110230F0000030F1007D
:100768000A128A11CA220A128A11922B0A128A11B3
:1007780041220A128A11922B080083120313B8012E
:10078800B901E02B38083607840039080318390AFC
:100798003707FF000A128A1103200A128A110A1267
:1007A8008A11B6220A128A11013083120313B8077C
:1007B8000318B90A0030B907380836078400390821
:1007C8000318390A3707FF000A128A1103200A1290
:1007D8008A11003A031DF12BF22BC62B0800343086
:1007E80083120313B6008030B7000A128A11C1239E
:1007F8000A128A110130F8000030F9000A128A1131
:1008080069230A128A1178037904031D0C2C0D2C14
:10081800132C0A128A1192230A128A113E2C0130D3
:10082800F8000030F9000A128A1169230A128A11A5
:10083800023078067904031D222C232C292C0A1255
:100848008A114C220A128A113E2C0130F80000301D
:10085800F9000A128A1169230A128A1103307806EC
:100868007904031D382C392C3E2C0A128A11902544
:100878000A128A110800F000700884008313000827
:10088800F100840A0008F20083120313510852048D
:10089800031D4F2C502C542C7030D1000130D20045
:1008A8000030720204300319710203185C2C5D2CAD
:1008B800612C0430F1000030F20071085102F3009D
:1008C8007208031C720A5202F400013074021030DC
:1008D80003197302031C712C722C7C2C52087402AD
:1008E800031D782C51087302031C7B2C7C2C832C51
:1008F8000C30D7000030D800F001F1018B2C7308C0
:10090800D1007408D2005108F0005208F100080024
:1009180083120313B30033080A128A110C230A1234
:100928008A11700883120313AF007108B0002E08F3
:100938000A128A110C230A128A11700883120313EF
:100948002F07B10071080318710A3007B200310887
:10095800013EA00032080318013E003EA1000A1221
:100968008A1145260A128A11831203132008B4003B
:100978002108B5003408F0003508F1003308F2000A
:100988000A128A1146230A128A11831203133408A1
:10099800F0003508F1002E08F2000A128A114623E9
:1009A8000A128A11831203133408AE003508AF0007
:1009B80008008312031386140630F2001330F10086
:1009C800AD30F000F00BE62CF10BE62CF20BE62C28
:1009D800ED2C8312031386100630F2001330F10059
:1009E800AD30F000F00BF62CF10BF62CF20BF62CD8
:1009F800FD2C8312031386140630F2001330F10025
:100A0800AD30F000F00B062DF10B062DF20B062D84
:100A18000D2D8312031386100630F2001330F100F7
:100A2800AD30F000F00B162DF10B162DF20B162D34
:100A38001D2D8312031386140630F2001330F100C3
:100A4800AD30F000F00B262DF10B262DF20B262DE4
:100A58002D2D831203138610080083120313061E1C
:100A6800362D372D3A2DF301F401572D861E3D2DD5
:100A78003E2D432D0130F3000030F400572D061FA2
:100A8800462D472D4C2D0230F3000030F400572D31
:100A9800861F4F2D502D552D0330F3000030F400E4
:100AA800572D00308F2D061C5A2D5B2D5E2DF5011C
:100AB800F601782D861C612D622D672D0130F50019
:100AC8000030F600782D061D6A2D6B2D702D023032
:100AD800F5000030F600782D861D732D742D552DE8
:100AE8000330F5000030F6000608031D7C2D7D2D2F
:100AF800782D7308F00002300310F00DFF3E031D3F
:100B0800802D3D307007F10075087107F2007208FA
:100B18008400831300080800013083120313B60011
:100B28008030B7000A128A11C1230A128A110130D3
:100B3800F8000030F9000A128A1169230A128A1192
:100B480078037904031DA92DAA2DEB2DC430831237
:100B58000313B6008030B7000A128A11C1230A12A3
:100B68008A110230F8000030F9000A128A1169234C
:100B78000A128A11780883120313BA007908BB0095
:100B88003A08F0003B08F1000A128A113E220A12C4
:100B98008A1170087104031DD22DD32DDF2D5E300C
:100BA80083120313B6008030B7000A128A11C123DA
:100BB8000A128A11442EA03083120313B600803023
:100BC800B7000A128A11C1230A128A11442E0A1286
:100BD8008A113C220A128A11E53A031DF42DF52DDB
:100BE800012E773083120313B6008030B7000A1243
:100BF8008A11C1230A128A11442E0A128A113C2230
:100C08000A128A11C33A031D0A2E0B2E172ED5304D
:100C180083120313B6008030B7000A128A11C12369
:100C28000A128A11442E0A128A113C220A128A11C7
:100C380083120313BC000130F8000030F9000A12D7
:100C48008A1169230A128A11023078067904031D71
:100C58002E2E2F2E442E831203133C08AE008C3008
:100C68000A128A118C240A128A11831203132E087D
:100C7800B6002F08B7000A128A11C1230A128A1176
:100C8800080083120313A801A90120082104031DE9
:100C98004E2E4F2E552E0130A0070318A10A003002
:100CA800A1070030210202300319200203185D2E2B
:100CB8005E2E632E0230A0000030A100792E21089C
:100CC800A3002008A200A209A309003023020230D1
:100CD800031922020318712E722E792E0C30D700B8
:100CE8000030D800A001A101FE2E2108F100200843
:100CF800F0000A128A11FF260A128A1183120313BE
:100D0800AA000030AB002A082B04031D8C2E8D2E60
:100D1800FA2E55085302A2005608031C560A54021C
:100D2800A30021082302031D9B2E2008220203187A
:100D38009E2E9F2ED02E2008023EA40021080318C4
:100D4800013E003EA50024300A128A113F240A12EF
:100D58008A11700883120313AC007108AD002C08C7
:100D68002D04031DB82EB92EBA2E762E54082D0642
:100D7800031DC02E53082C060319C32EC42EC82EDB
:100D88002C08D5002D08D60024082C07D3002508E8
:100D98000318250A2D07D4005508AA005608AB00E9
:100DA8002A08A6002B08A700260884008317271CFA
:100DB800831320088000840A210880000230A607D7
:100DC8000318A70A0030A7072608AA002708AB00BF
:100DD8002008023EA20021080318013E003EA3009D
:100DE8002208D5070318D60A2308D6072A08A00020
:100DF8002B08A1000800FD01F801FA018312031372
:100E08005908031D082F092F0B2F0030E02F590810
:100E1800FC00742F7C08840083130008F200840A05
:100E28000008F30071087306031D1C2F7008720672
:100E3800031D1F2F202F3A2F7A080319242F252F3F
:100E4800302F7C08023E84000008FF007A08023E2A
:100E580084007F088000372F7C08023E8400000849
:100E680083120313D9007C08023EE02F7C0884001B
:100E78000008F200840A0008F30073087102031DD9
:100E8800472F7208700203184A2F4B2F6D2F7D08C9
:100E980003194F2F502F692F7D0884000008F20096
:100EA800840A0008F3007C0884000008F400840A1F
:100EB8000008F50073087502031D642F7208740298
:100EC800031C672F682F692F6D2F7C08FD007A0897
:100ED800F8007C08FA007C08023E84000008FC0048
:100EE8007C08031D782F792F0E2F7D0803197D2F7D
:100EF8007E2F092F7D08023E840083130008FB0023
:100F08007D0884000008F200840A0008F3007008D5
:100F18007202F4007108031C710A7302F5000030B4
:100F28007502053003197402031C9B2F9C2FCE2FCA
:100F38007D0884000008F200840A0008F3007008A5
:100F48007202F4007108031C710A7302F500740838
:100F5800FE3EF60075080318013EFF3EF7007D08C7
:100F6800840070088000840A710880007D0884006D
:100F780000087D07023EF9007908840076088000A1
:100F8800840A770880007908023E84007B08800084
:100F98007908FB008312031359087D06031DD52F1A
:100FA800D62FD92F7B08D900DE2F7808023E84007F
:100FB8007B0880007D08023E080083134D30FD0049
:100FC8000230FE009330FF003D3084000A128A117F
:100FD800A7220A128A11CD01CE01CF01D001D10179
:100FE800D201D301D401D501D601D701D801D90145
:080FF80083010A128A11762A16
:08400000FF3FFF3FFF3FFF3FC0
:02400E003A3F37
:00000001FF
